{
  "_format": "hh-sol-artifact-1",
  "contractName": "ReactiveRewardEngine",
  "sourceName": "contracts/ReactiveRewardEngine.sol",
  "abi": [
    {
      "inputs": [],
      "stateMutability": "nonpayable",
      "type": "constructor"
    },
    {
      "anonymous": false,
      "inputs": [
        {
          "indexed": true,
          "internalType": "address",
          "name": "user",
          "type": "address"
        },
        {
          "indexed": false,
          "internalType": "uint256",
          "name": "badgeId",
          "type": "uint256"
        },
        {
          "indexed": false,
          "internalType": "string",
          "name": "badgeName",
          "type": "string"
        },
        {
          "indexed": false,
          "internalType": "uint256",
          "name": "timestamp",
          "type": "uint256"
        }
      ],
      "name": "AchievementUnlocked",
      "type": "event"
    },
    {
      "anonymous": false,
      "inputs": [
        {
          "indexed": true,
          "internalType": "uint256",
          "name": "eventId",
          "type": "uint256"
        },
        {
          "indexed": true,
          "internalType": "address",
          "name": "user",
          "type": "address"
        },
        {
          "indexed": false,
          "internalType": "string",
          "name": "eventName",
          "type": "string"
        },
        {
          "indexed": false,
          "internalType": "string",
          "name": "metadata",
          "type": "string"
        },
        {
          "indexed": false,
          "internalType": "uint256",
          "name": "timestamp",
          "type": "uint256"
        }
      ],
      "name": "EventTriggered",
      "type": "event"
    },
    {
      "anonymous": false,
      "inputs": [
        {
          "indexed": true,
          "internalType": "address",
          "name": "user",
          "type": "address"
        },
        {
          "indexed": false,
          "internalType": "uint256",
          "name": "amount",
          "type": "uint256"
        },
        {
          "indexed": false,
          "internalType": "string",
          "name": "reason",
          "type": "string"
        },
        {
          "indexed": false,
          "internalType": "uint256",
          "name": "timestamp",
          "type": "uint256"
        }
      ],
      "name": "RewardMinted",
      "type": "event"
    },
    {
      "anonymous": false,
      "inputs": [
        {
          "indexed": true,
          "internalType": "uint256",
          "name": "ruleId",
          "type": "uint256"
        },
        {
          "indexed": true,
          "internalType": "address",
          "name": "owner",
          "type": "address"
        },
        {
          "indexed": false,
          "internalType": "string",
          "name": "eventName",
          "type": "string"
        },
        {
          "indexed": false,
          "internalType": "uint256",
          "name": "rewardAmount",
          "type": "uint256"
        },
        {
          "indexed": false,
          "internalType": "uint256",
          "name": "timestamp",
          "type": "uint256"
        }
      ],
      "name": "RuleRegistered",
      "type": "event"
    },
    {
      "anonymous": false,
      "inputs": [
        {
          "indexed": true,
          "internalType": "address",
          "name": "user",
          "type": "address"
        },
        {
          "indexed": false,
          "internalType": "uint256",
          "name": "newScore",
          "type": "uint256"
        },
        {
          "indexed": false,
          "internalType": "int256",
          "name": "delta",
          "type": "int256"
        },
        {
          "indexed": false,
          "internalType": "uint256",
          "name": "timestamp",
          "type": "uint256"
        }
      ],
      "name": "ScoreUpdated",
      "type": "event"
    },
    {
      "inputs": [],
      "name": "admin",
      "outputs": [
        {
          "internalType": "address",
          "name": "",
          "type": "address"
        }
      ],
      "stateMutability": "view",
      "type": "function"
    },
    {
      "inputs": [
        {
          "internalType": "string",
          "name": "_eventName",
          "type": "string"
        },
        {
          "internalType": "string",
          "name": "_metadata",
          "type": "string"
        }
      ],
      "name": "emitCustomEvent",
      "outputs": [],
      "stateMutability": "nonpayable",
      "type": "function"
    },
    {
      "inputs": [],
      "name": "eventHandler",
      "outputs": [
        {
          "internalType": "address",
          "name": "",
          "type": "address"
        }
      ],
      "stateMutability": "view",
      "type": "function"
    },
    {
      "inputs": [
        {
          "internalType": "uint256",
          "name": "",
          "type": "uint256"
        }
      ],
      "name": "events",
      "outputs": [
        {
          "internalType": "uint256",
          "name": "id",
          "type": "uint256"
        },
        {
          "internalType": "address",
          "name": "user",
          "type": "address"
        },
        {
          "internalType": "string",
          "name": "eventName",
          "type": "string"
        },
        {
          "internalType": "string",
          "name": "metadata",
          "type": "string"
        },
        {
          "internalType": "uint256",
          "name": "timestamp",
          "type": "uint256"
        },
        {
          "internalType": "bool",
          "name": "processed",
          "type": "bool"
        }
      ],
      "stateMutability": "view",
      "type": "function"
    },
    {
      "inputs": [
        {
          "internalType": "address",
          "name": "_user",
          "type": "address"
        },
        {
          "internalType": "uint256",
          "name": "_ruleId",
          "type": "uint256"
        }
      ],
      "name": "executeAction",
      "outputs": [],
      "stateMutability": "nonpayable",
      "type": "function"
    },
    {
      "inputs": [
        {
          "internalType": "uint256",
          "name": "_eventId",
          "type": "uint256"
        }
      ],
      "name": "getEvent",
      "outputs": [
        {
          "components": [
            {
              "internalType": "uint256",
              "name": "id",
              "type": "uint256"
            },
            {
              "internalType": "address",
              "name": "user",
              "type": "address"
            },
            {
              "internalType": "string",
              "name": "eventName",
              "type": "string"
            },
            {
              "internalType": "string",
              "name": "metadata",
              "type": "string"
            },
            {
              "internalType": "uint256",
              "name": "timestamp",
              "type": "uint256"
            },
            {
              "internalType": "bool",
              "name": "processed",
              "type": "bool"
            }
          ],
          "internalType": "struct ReactiveRewardEngine.Event",
          "name": "",
          "type": "tuple"
        }
      ],
      "stateMutability": "view",
      "type": "function"
    },
    {
      "inputs": [],
      "name": "getEventCounter",
      "outputs": [
        {
          "internalType": "uint256",
          "name": "",
          "type": "uint256"
        }
      ],
      "stateMutability": "view",
      "type": "function"
    },
    {
      "inputs": [
        {
          "internalType": "uint256",
          "name": "_eventId",
          "type": "uint256"
        }
      ],
      "name": "getEventTuple",
      "outputs": [
        {
          "internalType": "address",
          "name": "",
          "type": "address"
        },
        {
          "internalType": "string",
          "name": "",
          "type": "string"
        },
        {
          "internalType": "string",
          "name": "",
          "type": "string"
        },
        {
          "internalType": "uint256",
          "name": "",
          "type": "uint256"
        },
        {
          "internalType": "bool",
          "name": "",
          "type": "bool"
        }
      ],
      "stateMutability": "view",
      "type": "function"
    },
    {
      "inputs": [
        {
          "internalType": "uint256",
          "name": "_ruleId",
          "type": "uint256"
        }
      ],
      "name": "getRule",
      "outputs": [
        {
          "components": [
            {
              "internalType": "uint256",
              "name": "id",
              "type": "uint256"
            },
            {
              "internalType": "string",
              "name": "eventName",
              "type": "string"
            },
            {
              "internalType": "string",
              "name": "condition",
              "type": "string"
            },
            {
              "internalType": "enum ReactiveRewardEngine.ActionType",
              "name": "actionType",
              "type": "uint8"
            },
            {
              "internalType": "uint256",
              "name": "rewardAmount",
              "type": "uint256"
            },
            {
              "internalType": "string",
              "name": "badgeName",
              "type": "string"
            },
            {
              "internalType": "string",
              "name": "badgeMetadata",
              "type": "string"
            },
            {
              "internalType": "address",
              "name": "owner",
              "type": "address"
            },
            {
              "internalType": "bool",
              "name": "isActive",
              "type": "bool"
            },
            {
              "internalType": "uint256",
              "name": "createdAt",
              "type": "uint256"
            }
          ],
          "internalType": "struct ReactiveRewardEngine.Rule",
          "name": "",
          "type": "tuple"
        }
      ],
      "stateMutability": "view",
      "type": "function"
    },
    {
      "inputs": [],
      "name": "getRuleCounter",
      "outputs": [
        {
          "internalType": "uint256",
          "name": "",
          "type": "uint256"
        }
      ],
      "stateMutability": "view",
      "type": "function"
    },
    {
      "inputs": [
        {
          "internalType": "address",
          "name": "_user",
          "type": "address"
        }
      ],
      "name": "getUserAchievements",
      "outputs": [
        {
          "internalType": "uint256[]",
          "name": "",
          "type": "uint256[]"
        }
      ],
      "stateMutability": "view",
      "type": "function"
    },
    {
      "inputs": [
        {
          "internalType": "address",
          "name": "_user",
          "type": "address"
        }
      ],
      "name": "getUserRewards",
      "outputs": [
        {
          "internalType": "uint256",
          "name": "",
          "type": "uint256"
        }
      ],
      "stateMutability": "view",
      "type": "function"
    },
    {
      "inputs": [],
      "name": "leaderboardRegistry",
      "outputs": [
        {
          "internalType": "address",
          "name": "",
          "type": "address"
        }
      ],
      "stateMutability": "view",
      "type": "function"
    },
    {
      "inputs": [
        {
          "internalType": "string",
          "name": "_eventName",
          "type": "string"
        },
        {
          "internalType": "string",
          "name": "_condition",
          "type": "string"
        },
        {
          "internalType": "enum ReactiveRewardEngine.ActionType",
          "name": "_actionType",
          "type": "uint8"
        },
        {
          "internalType": "uint256",
          "name": "_rewardAmount",
          "type": "uint256"
        },
        {
          "internalType": "string",
          "name": "_badgeName",
          "type": "string"
        },
        {
          "internalType": "string",
          "name": "_badgeMetadata",
          "type": "string"
        }
      ],
      "name": "registerRule",
      "outputs": [
        {
          "internalType": "uint256",
          "name": "",
          "type": "uint256"
        }
      ],
      "stateMutability": "nonpayable",
      "type": "function"
    },
    {
      "inputs": [
        {
          "internalType": "uint256",
          "name": "",
          "type": "uint256"
        }
      ],
      "name": "rules",
      "outputs": [
        {
          "internalType": "uint256",
          "name": "id",
          "type": "uint256"
        },
        {
          "internalType": "string",
          "name": "eventName",
          "type": "string"
        },
        {
          "internalType": "string",
          "name": "condition",
          "type": "string"
        },
        {
          "internalType": "enum ReactiveRewardEngine.ActionType",
          "name": "actionType",
          "type": "uint8"
        },
        {
          "internalType": "uint256",
          "name": "rewardAmount",
          "type": "uint256"
        },
        {
          "internalType": "string",
          "name": "badgeName",
          "type": "string"
        },
        {
          "internalType": "string",
          "name": "badgeMetadata",
          "type": "string"
        },
        {
          "internalType": "address",
          "name": "owner",
          "type": "address"
        },
        {
          "internalType": "bool",
          "name": "isActive",
          "type": "bool"
        },
        {
          "internalType": "uint256",
          "name": "createdAt",
          "type": "uint256"
        }
      ],
      "stateMutability": "view",
      "type": "function"
    },
    {
      "inputs": [
        {
          "internalType": "address",
          "name": "_handler",
          "type": "address"
        }
      ],
      "name": "setEventHandler",
      "outputs": [],
      "stateMutability": "nonpayable",
      "type": "function"
    },
    {
      "inputs": [
        {
          "internalType": "address",
          "name": "_registry",
          "type": "address"
        }
      ],
      "name": "setLeaderboardRegistry",
      "outputs": [],
      "stateMutability": "nonpayable",
      "type": "function"
    },
    {
      "inputs": [
        {
          "internalType": "uint256",
          "name": "_ruleId",
          "type": "uint256"
        }
      ],
      "name": "toggleRule",
      "outputs": [],
      "stateMutability": "nonpayable",
      "type": "function"
    },
    {
      "inputs": [
        {
          "internalType": "address",
          "name": "",
          "type": "address"
        },
        {
          "internalType": "uint256",
          "name": "",
          "type": "uint256"
        }
      ],
      "name": "userAchievements",
      "outputs": [
        {
          "internalType": "uint256",
          "name": "",
          "type": "uint256"
        }
      ],
      "stateMutability": "view",
      "type": "function"
    },
    {
      "inputs": [
        {
          "internalType": "address",
          "name": "",
          "type": "address"
        }
      ],
      "name": "userRewardBalance",
      "outputs": [
        {
          "internalType": "uint256",
          "name": "",
          "type": "uint256"
        }
      ],
      "stateMutability": "view",
      "type": "function"
    }
  ],
  "bytecode": "0x608060405234801561001057600080fd5b50336000806101000a81548173ffffffffffffffffffffffffffffffffffffffff021916908373ffffffffffffffffffffffffffffffffffffffff16021790555060006003819055506000600481905550613506806100706000396000f3fe608060405234801561001057600080fd5b506004361061012c5760003560e01c806348462037116100ad578063ad35195111610071578063ad3519511461039f578063c3fda7a3146103bd578063c8c36bbe146103d9578063f09153c4146103f7578063f851a440146104275761012c565b806348462037146102bf57806364f520bc146102ef5780636d1884e01461030b5780637744a7b51461033b5780638787bb151461036f5761012c565b806324548c60116100f457806324548c6014610207578063390fc6b6146102375780633c82a978146102535780633e99c4801461027157806347c696921461028f5761012c565b806304d6ded414610131578063078b0fb71461016a5780630b7914301461019a578063185a1415146101cf5780631e00cb76146101eb575b600080fd5b61014b60048036038101906101469190612247565b610445565b6040516101619a999897969594939291906123e6565b60405180910390f35b610184600480360381019061017f91906124ca565b6106f3565b60405161019191906124f7565b60405180910390f35b6101b460048036038101906101af9190612247565b61073c565b6040516101c696959493929190612512565b60405180910390f35b6101e960048036038101906101e491906124ca565b6108b5565b005b610205600480360381019061020091906124ca565b6109f6565b005b610221600480360381019061021c9190612581565b610b37565b60405161022e91906124f7565b60405180910390f35b610251600480360381019061024c9190612247565b610b68565b005b61025b610c8f565b60405161026891906124f7565b60405180910390f35b610279610c99565b60405161028691906125c1565b60405180910390f35b6102a960048036038101906102a49190612736565b610cbf565b6040516102b691906124f7565b60405180910390f35b6102d960048036038101906102d49190612247565b610f29565b6040516102e691906129a8565b60405180910390f35b610309600480360381019061030491906129ca565b611269565b005b61032560048036038101906103209190612247565b6113e3565b6040516103329190612ad2565b60405180910390f35b61035560048036038101906103509190612247565b6115b9565b604051610366959493929190612af4565b60405180910390f35b610389600480360381019061038491906124ca565b6117b9565b60405161039691906124f7565b60405180910390f35b6103a76117d1565b6040516103b491906124f7565b60405180910390f35b6103d760048036038101906103d29190612581565b6117db565b005b6103e1611c1b565b6040516103ee91906125c1565b60405180910390f35b610411600480360381019061040c91906124ca565b611c41565b60405161041e9190612c04565b60405180910390f35b61042f611cd8565b60405161043c91906125c1565b60405180910390f35b600560205280600052604060002060009150905080600001549080600101805461046e90612c55565b80601f016020809104026020016040519081016040528092919081815260200182805461049a90612c55565b80156104e75780601f106104bc576101008083540402835291602001916104e7565b820191906000526020600020905b8154815290600101906020018083116104ca57829003601f168201915b5050505050908060020180546104fc90612c55565b80601f016020809104026020016040519081016040528092919081815260200182805461052890612c55565b80156105755780601f1061054a57610100808354040283529160200191610575565b820191906000526020600020905b81548152906001019060200180831161055857829003601f168201915b5050505050908060030160009054906101000a900460ff16908060040154908060050180546105a390612c55565b80601f01602080910402602001604051908101604052809291908181526020018280546105cf90612c55565b801561061c5780601f106105f15761010080835404028352916020019161061c565b820191906000526020600020905b8154815290600101906020018083116105ff57829003601f168201915b50505050509080600601805461063190612c55565b80601f016020809104026020016040519081016040528092919081815260200182805461065d90612c55565b80156106aa5780601f1061067f576101008083540402835291602001916106aa565b820191906000526020600020905b81548152906001019060200180831161068d57829003601f168201915b5050505050908060070160009054906101000a900473ffffffffffffffffffffffffffffffffffffffff16908060070160149054906101000a900460ff1690806008015490508a565b6000600760008373ffffffffffffffffffffffffffffffffffffffff1673ffffffffffffffffffffffffffffffffffffffff168152602001908152602001600020549050919050565b60066020528060005260406000206000915090508060000154908060010160009054906101000a900473ffffffffffffffffffffffffffffffffffffffff169080600201805461078b90612c55565b80601f01602080910402602001604051908101604052809291908181526020018280546107b790612c55565b80156108045780601f106107d957610100808354040283529160200191610804565b820191906000526020600020905b8154815290600101906020018083116107e757829003601f168201915b50505050509080600301805461081990612c55565b80601f016020809104026020016040519081016040528092919081815260200182805461084590612c55565b80156108925780601f1061086757610100808354040283529160200191610892565b820191906000526020600020905b81548152906001019060200180831161087557829003601f168201915b5050505050908060040154908060050160009054906101000a900460ff16905086565b60008054906101000a900473ffffffffffffffffffffffffffffffffffffffff1673ffffffffffffffffffffffffffffffffffffffff163373ffffffffffffffffffffffffffffffffffffffff1614610943576040517f08c379a000000000000000000000000000000000000000000000000000000000815260040161093a90612cd2565b60405180910390fd5b600073ffffffffffffffffffffffffffffffffffffffff168173ffffffffffffffffffffffffffffffffffffffff16036109b2576040517f08c379a00000000000000000000000000000000000000000000000000000000081526004016109a990612d3e565b60405180910390fd5b80600260006101000a81548173ffffffffffffffffffffffffffffffffffffffff021916908373ffffffffffffffffffffffffffffffffffffffff16021790555050565b60008054906101000a900473ffffffffffffffffffffffffffffffffffffffff1673ffffffffffffffffffffffffffffffffffffffff163373ffffffffffffffffffffffffffffffffffffffff1614610a84576040517f08c379a0000000000000000000000000000000000000000000000000000000008152600401610a7b90612cd2565b60405180910390fd5b600073ffffffffffffffffffffffffffffffffffffffff168173ffffffffffffffffffffffffffffffffffffffff1603610af3576040517f08c379a0000000000000000000000000000000000000000000000000000000008152600401610aea90612daa565b60405180910390fd5b80600160006101000a81548173ffffffffffffffffffffffffffffffffffffffff021916908373ffffffffffffffffffffffffffffffffffffffff16021790555050565b60086020528160005260406000208181548110610b5357600080fd5b90600052602060002001600091509150505481565b60008054906101000a900473ffffffffffffffffffffffffffffffffffffffff1673ffffffffffffffffffffffffffffffffffffffff163373ffffffffffffffffffffffffffffffffffffffff1614610bf6576040517f08c379a0000000000000000000000000000000000000000000000000000000008152600401610bed90612cd2565b60405180910390fd5b6003548110610c3a576040517f08c379a0000000000000000000000000000000000000000000000000000000008152600401610c3190612e16565b60405180910390fd5b6005600082815260200190815260200160002060070160149054906101000a900460ff16156005600083815260200190815260200160002060070160146101000a81548160ff02191690831515021790555050565b6000600454905090565b600260009054906101000a900473ffffffffffffffffffffffffffffffffffffffff1681565b600080875111610d04576040517f08c379a0000000000000000000000000000000000000000000000000000000008152600401610cfb90612e82565b60405180910390fd5b600060036000815480929190610d1990612ed1565b919050559050600181610d2c9190612f19565b600381905550604051806101400160405280828152602001898152602001888152602001876002811115610d6357610d62612313565b5b81526020018681526020018581526020018481526020013373ffffffffffffffffffffffffffffffffffffffff1681526020016001151581526020014281525060056000838152602001908152602001600020600082015181600001556020820151816001019081610dd591906130f9565b506040820151816002019081610deb91906130f9565b5060608201518160030160006101000a81548160ff02191690836002811115610e1757610e16612313565b5b02179055506080820151816004015560a0820151816005019081610e3b91906130f9565b5060c0820151816006019081610e5191906130f9565b5060e08201518160070160006101000a81548173ffffffffffffffffffffffffffffffffffffffff021916908373ffffffffffffffffffffffffffffffffffffffff1602179055506101008201518160070160146101000a81548160ff02191690831515021790555061012082015181600801559050503373ffffffffffffffffffffffffffffffffffffffff16817f339f312f1051f55dad5ff0eaaf28a6a3bbeefeb1fca48904c6101376f3e1b09b8a8842604051610f13939291906131cb565b60405180910390a3809150509695505050505050565b610f31612132565b600560008381526020019081526020016000206040518061014001604052908160008201548152602001600182018054610f6a90612c55565b80601f0160208091040260200160405190810160405280929190818152602001828054610f9690612c55565b8015610fe35780601f10610fb857610100808354040283529160200191610fe3565b820191906000526020600020905b815481529060010190602001808311610fc657829003601f168201915b50505050508152602001600282018054610ffc90612c55565b80601f016020809104026020016040519081016040528092919081815260200182805461102890612c55565b80156110755780601f1061104a57610100808354040283529160200191611075565b820191906000526020600020905b81548152906001019060200180831161105857829003601f168201915b505050505081526020016003820160009054906101000a900460ff1660028111156110a3576110a2612313565b5b60028111156110b5576110b4612313565b5b8152602001600482015481526020016005820180546110d390612c55565b80601f01602080910402602001604051908101604052809291908181526020018280546110ff90612c55565b801561114c5780601f106111215761010080835404028352916020019161114c565b820191906000526020600020905b81548152906001019060200180831161112f57829003601f168201915b5050505050815260200160068201805461116590612c55565b80601f016020809104026020016040519081016040528092919081815260200182805461119190612c55565b80156111de5780601f106111b3576101008083540402835291602001916111de565b820191906000526020600020905b8154815290600101906020018083116111c157829003601f168201915b505050505081526020016007820160009054906101000a900473ffffffffffffffffffffffffffffffffffffffff1673ffffffffffffffffffffffffffffffffffffffff1673ffffffffffffffffffffffffffffffffffffffff1681526020016007820160149054906101000a900460ff161515151581526020016008820154815250509050919050565b600060045490506004600081548092919061128390612ed1565b91905055506040518060c001604052808281526020013373ffffffffffffffffffffffffffffffffffffffff16815260200184815260200183815260200142815260200160001515815250600660008381526020019081526020016000206000820151816000015560208201518160010160006101000a81548173ffffffffffffffffffffffffffffffffffffffff021916908373ffffffffffffffffffffffffffffffffffffffff160217905550604082015181600201908161134791906130f9565b50606082015181600301908161135d91906130f9565b506080820151816004015560a08201518160050160006101000a81548160ff0219169083151502179055509050503373ffffffffffffffffffffffffffffffffffffffff16817ffaed0de0f91858a96a2bb3761f6b8e5cb61e1e95831bcadb1b4493daf30fc6c98585426040516113d693929190613209565b60405180910390a3505050565b6113eb6121af565b600660008381526020019081526020016000206040518060c0016040529081600082015481526020016001820160009054906101000a900473ffffffffffffffffffffffffffffffffffffffff1673ffffffffffffffffffffffffffffffffffffffff1673ffffffffffffffffffffffffffffffffffffffff16815260200160028201805461147990612c55565b80601f01602080910402602001604051908101604052809291908181526020018280546114a590612c55565b80156114f25780601f106114c7576101008083540402835291602001916114f2565b820191906000526020600020905b8154815290600101906020018083116114d557829003601f168201915b5050505050815260200160038201805461150b90612c55565b80601f016020809104026020016040519081016040528092919081815260200182805461153790612c55565b80156115845780601f1061155957610100808354040283529160200191611584565b820191906000526020600020905b81548152906001019060200180831161156757829003601f168201915b50505050508152602001600482015481526020016005820160009054906101000a900460ff1615151515815250509050919050565b60006060806000806000600660008881526020019081526020016000206040518060c0016040529081600082015481526020016001820160009054906101000a900473ffffffffffffffffffffffffffffffffffffffff1673ffffffffffffffffffffffffffffffffffffffff1673ffffffffffffffffffffffffffffffffffffffff16815260200160028201805461165190612c55565b80601f016020809104026020016040519081016040528092919081815260200182805461167d90612c55565b80156116ca5780601f1061169f576101008083540402835291602001916116ca565b820191906000526020600020905b8154815290600101906020018083116116ad57829003601f168201915b505050505081526020016003820180546116e390612c55565b80601f016020809104026020016040519081016040528092919081815260200182805461170f90612c55565b801561175c5780601f106117315761010080835404028352916020019161175c565b820191906000526020600020905b81548152906001019060200180831161173f57829003601f168201915b50505050508152602001600482015481526020016005820160009054906101000a900460ff161515151581525050905080602001518160400151826060015183608001518460a00151955095509550955095505091939590929450565b60076020528060005260406000206000915090505481565b6000600354905090565b600160009054906101000a900473ffffffffffffffffffffffffffffffffffffffff1673ffffffffffffffffffffffffffffffffffffffff163373ffffffffffffffffffffffffffffffffffffffff161461186b576040517f08c379a00000000000000000000000000000000000000000000000000000000081526004016118629061329a565b60405180910390fd5b600073ffffffffffffffffffffffffffffffffffffffff168273ffffffffffffffffffffffffffffffffffffffff16036118da576040517f08c379a00000000000000000000000000000000000000000000000000000000081526004016118d190613306565b60405180910390fd5b600354811061191e576040517f08c379a000000000000000000000000000000000000000000000000000000000815260040161191590612e16565b60405180910390fd5b60006005600083815260200190815260200160002090508060070160149054906101000a900460ff16611986576040517f08c379a000000000000000000000000000000000000000000000000000000000815260040161197d90613372565b60405180910390fd5b6000600281111561199a57611999612313565b5b8160030160009054906101000a900460ff1660028111156119be576119bd612313565b5b03611a6357611a5e8382600401548360010180546119db90612c55565b80601f0160208091040260200160405190810160405280929190818152602001828054611a0790612c55565b8015611a545780601f10611a2957610100808354040283529160200191611a54565b820191906000526020600020905b815481529060010190602001808311611a3757829003601f168201915b5050505050611cfc565b611c16565b60016002811115611a7757611a76612313565b5b8160030160009054906101000a900460ff166002811115611a9b57611a9a612313565b5b03611bc957611bc48383836005018054611ab490612c55565b80601f0160208091040260200160405190810160405280929190818152602001828054611ae090612c55565b8015611b2d5780601f10611b0257610100808354040283529160200191611b2d565b820191906000526020600020905b815481529060010190602001808311611b1057829003601f168201915b5050505050846006018054611b4190612c55565b80601f0160208091040260200160405190810160405280929190818152602001828054611b6d90612c55565b8015611bba5780601f10611b8f57610100808354040283529160200191611bba565b820191906000526020600020905b815481529060010190602001808311611b9d57829003601f168201915b5050505050611da9565b611c15565b600280811115611bdc57611bdb612313565b5b8160030160009054906101000a900460ff166002811115611c0057611bff612313565b5b03611c1457611c13838260040154611f61565b5b5b5b505050565b600160009054906101000a900473ffffffffffffffffffffffffffffffffffffffff1681565b6060600860008373ffffffffffffffffffffffffffffffffffffffff1673ffffffffffffffffffffffffffffffffffffffff168152602001908152602001600020805480602002602001604051908101604052809291908181526020018280548015611ccc57602002820191906000526020600020905b815481526020019060010190808311611cb8575b50505050509050919050565b60008054906101000a900473ffffffffffffffffffffffffffffffffffffffff1681565b81600760008573ffffffffffffffffffffffffffffffffffffffff1673ffffffffffffffffffffffffffffffffffffffff1681526020019081526020016000206000828254611d4b9190612f19565b925050819055508273ffffffffffffffffffffffffffffffffffffffff167f3e1832e1b4e86a04ad89ddc0119770bfe5020004f51cfc8c81a7b187ce55fb9f838342604051611d9c93929190613392565b60405180910390a2505050565b600860008573ffffffffffffffffffffffffffffffffffffffff1673ffffffffffffffffffffffffffffffffffffffff168152602001908152602001600020839080600181540180825580915050600190039060005260206000200160009091909190915055600073ffffffffffffffffffffffffffffffffffffffff16600260009054906101000a900473ffffffffffffffffffffffffffffffffffffffff1673ffffffffffffffffffffffffffffffffffffffff1614611f0957600260009054906101000a900473ffffffffffffffffffffffffffffffffffffffff1673ffffffffffffffffffffffffffffffffffffffff1663707114c18584846040518463ffffffff1660e01b8152600401611ec4939291906133d0565b6020604051808303816000875af1158015611ee3573d6000803e3d6000fd5b505050506040513d601f19601f82011682018060405250810190611f07919061342a565b505b8373ffffffffffffffffffffffffffffffffffffffff167f3f196bc9373e45fcba7e9416517fcc938a86fb8c26ac2d731d899beac4bed948848442604051611f5393929190613392565b60405180910390a250505050565b80600760008473ffffffffffffffffffffffffffffffffffffffff1673ffffffffffffffffffffffffffffffffffffffff1681526020019081526020016000206000828254611fb09190612f19565b92505081905550600073ffffffffffffffffffffffffffffffffffffffff16600260009054906101000a900473ffffffffffffffffffffffffffffffffffffffff1673ffffffffffffffffffffffffffffffffffffffff161461209d57600260009054906101000a900473ffffffffffffffffffffffffffffffffffffffff1673ffffffffffffffffffffffffffffffffffffffff166365d9772483836040518363ffffffff1660e01b815260040161206a929190613457565b600060405180830381600087803b15801561208457600080fd5b505af1158015612098573d6000803e3d6000fd5b505050505b8173ffffffffffffffffffffffffffffffffffffffff167fc752b2d18f74164456787b4c4387f1bcc9e5ae25ccbcbb10ab3ebdd07a58a9c0600760008573ffffffffffffffffffffffffffffffffffffffff1673ffffffffffffffffffffffffffffffffffffffff16815260200190815260200160002054834260405161212693929190613499565b60405180910390a25050565b6040518061014001604052806000815260200160608152602001606081526020016000600281111561216757612166612313565b5b8152602001600081526020016060815260200160608152602001600073ffffffffffffffffffffffffffffffffffffffff168152602001600015158152602001600081525090565b6040518060c0016040528060008152602001600073ffffffffffffffffffffffffffffffffffffffff1681526020016060815260200160608152602001600081526020016000151581525090565b6000604051905090565b600080fd5b600080fd5b6000819050919050565b61222481612211565b811461222f57600080fd5b50565b6000813590506122418161221b565b92915050565b60006020828403121561225d5761225c612207565b5b600061226b84828501612232565b91505092915050565b61227d81612211565b82525050565b600081519050919050565b600082825260208201905092915050565b60005b838110156122bd5780820151818401526020810190506122a2565b60008484015250505050565b6000601f19601f8301169050919050565b60006122e582612283565b6122ef818561228e565b93506122ff81856020860161229f565b612308816122c9565b840191505092915050565b7f4e487b7100000000000000000000000000000000000000000000000000000000600052602160045260246000fd5b6003811061235357612352612313565b5b50565b600081905061236482612342565b919050565b600061237482612356565b9050919050565b61238481612369565b82525050565b600073ffffffffffffffffffffffffffffffffffffffff82169050919050565b60006123b58261238a565b9050919050565b6123c5816123aa565b82525050565b60008115159050919050565b6123e0816123cb565b82525050565b6000610140820190506123fc600083018d612274565b818103602083015261240e818c6122da565b90508181036040830152612422818b6122da565b9050612431606083018a61237b565b61243e6080830189612274565b81810360a083015261245081886122da565b905081810360c083015261246481876122da565b905061247360e08301866123bc565b6124816101008301856123d7565b61248f610120830184612274565b9b9a5050505050505050505050565b6124a7816123aa565b81146124b257600080fd5b50565b6000813590506124c48161249e565b92915050565b6000602082840312156124e0576124df612207565b5b60006124ee848285016124b5565b91505092915050565b600060208201905061250c6000830184612274565b92915050565b600060c0820190506125276000830189612274565b61253460208301886123bc565b818103604083015261254681876122da565b9050818103606083015261255a81866122da565b90506125696080830185612274565b61257660a08301846123d7565b979650505050505050565b6000806040838503121561259857612597612207565b5b60006125a6858286016124b5565b92505060206125b785828601612232565b9150509250929050565b60006020820190506125d660008301846123bc565b92915050565b600080fd5b600080fd5b7f4e487b7100000000000000000000000000000000000000000000000000000000600052604160045260246000fd5b61261e826122c9565b810181811067ffffffffffffffff8211171561263d5761263c6125e6565b5b80604052505050565b60006126506121fd565b905061265c8282612615565b919050565b600067ffffffffffffffff82111561267c5761267b6125e6565b5b612685826122c9565b9050602081019050919050565b82818337600083830152505050565b60006126b46126af84612661565b612646565b9050828152602081018484840111156126d0576126cf6125e1565b5b6126db848285612692565b509392505050565b600082601f8301126126f8576126f76125dc565b5b81356127088482602086016126a1565b91505092915050565b6003811061271e57600080fd5b50565b60008135905061273081612711565b92915050565b60008060008060008060c0878903121561275357612752612207565b5b600087013567ffffffffffffffff8111156127715761277061220c565b5b61277d89828a016126e3565b965050602087013567ffffffffffffffff81111561279e5761279d61220c565b5b6127aa89828a016126e3565b95505060406127bb89828a01612721565b94505060606127cc89828a01612232565b935050608087013567ffffffffffffffff8111156127ed576127ec61220c565b5b6127f989828a016126e3565b92505060a087013567ffffffffffffffff81111561281a5761281961220c565b5b61282689828a016126e3565b9150509295509295509295565b61283c81612211565b82525050565b600082825260208201905092915050565b600061285e82612283565b6128688185612842565b935061287881856020860161229f565b612881816122c9565b840191505092915050565b61289581612369565b82525050565b6128a4816123aa565b82525050565b6128b3816123cb565b82525050565b6000610140830160008301516128d26000860182612833565b50602083015184820360208601526128ea8282612853565b915050604083015184820360408601526129048282612853565b9150506060830151612919606086018261288c565b50608083015161292c6080860182612833565b5060a083015184820360a08601526129448282612853565b91505060c083015184820360c086015261295e8282612853565b91505060e083015161297360e086018261289b565b506101008301516129886101008601826128aa565b5061012083015161299d610120860182612833565b508091505092915050565b600060208201905081810360008301526129c281846128b9565b905092915050565b600080604083850312156129e1576129e0612207565b5b600083013567ffffffffffffffff8111156129ff576129fe61220c565b5b612a0b858286016126e3565b925050602083013567ffffffffffffffff811115612a2c57612a2b61220c565b5b612a38858286016126e3565b9150509250929050565b600060c083016000830151612a5a6000860182612833565b506020830151612a6d602086018261289b565b5060408301518482036040860152612a858282612853565b91505060608301518482036060860152612a9f8282612853565b9150506080830151612ab46080860182612833565b5060a0830151612ac760a08601826128aa565b508091505092915050565b60006020820190508181036000830152612aec8184612a42565b905092915050565b600060a082019050612b0960008301886123bc565b8181036020830152612b1b81876122da565b90508181036040830152612b2f81866122da565b9050612b3e6060830185612274565b612b4b60808301846123d7565b9695505050505050565b600081519050919050565b600082825260208201905092915050565b6000819050602082019050919050565b6000612b8d8383612833565b60208301905092915050565b6000602082019050919050565b6000612bb182612b55565b612bbb8185612b60565b9350612bc683612b71565b8060005b83811015612bf7578151612bde8882612b81565b9750612be983612b99565b925050600181019050612bca565b5085935050505092915050565b60006020820190508181036000830152612c1e8184612ba6565b905092915050565b7f4e487b7100000000000000000000000000000000000000000000000000000000600052602260045260246000fd5b60006002820490506001821680612c6d57607f821691505b602082108103612c8057612c7f612c26565b5b50919050565b7f4f6e6c792061646d696e00000000000000000000000000000000000000000000600082015250565b6000612cbc600a8361228e565b9150612cc782612c86565b602082019050919050565b60006020820190508181036000830152612ceb81612caf565b9050919050565b7f496e76616c696420726567697374727900000000000000000000000000000000600082015250565b6000612d2860108361228e565b9150612d3382612cf2565b602082019050919050565b60006020820190508181036000830152612d5781612d1b565b9050919050565b7f496e76616c69642068616e646c65720000000000000000000000000000000000600082015250565b6000612d94600f8361228e565b9150612d9f82612d5e565b602082019050919050565b60006020820190508181036000830152612dc381612d87565b9050919050565b7f52756c65206e6f7420666f756e64000000000000000000000000000000000000600082015250565b6000612e00600e8361228e565b9150612e0b82612dca565b602082019050919050565b60006020820190508181036000830152612e2f81612df3565b9050919050565b7f4576656e74206e616d6520726571756972656400000000000000000000000000600082015250565b6000612e6c60138361228e565b9150612e7782612e36565b602082019050919050565b60006020820190508181036000830152612e9b81612e5f565b9050919050565b7f4e487b7100000000000000000000000000000000000000000000000000000000600052601160045260246000fd5b6000612edc82612211565b91507fffffffffffffffffffffffffffffffffffffffffffffffffffffffffffffffff8203612f0e57612f0d612ea2565b5b600182019050919050565b6000612f2482612211565b9150612f2f83612211565b9250828201905080821115612f4757612f46612ea2565b5b92915050565b60008190508160005260206000209050919050565b60006020601f8301049050919050565b600082821b905092915050565b600060088302612faf7fffffffffffffffffffffffffffffffffffffffffffffffffffffffffffffffff82612f72565b612fb98683612f72565b95508019841693508086168417925050509392505050565b6000819050919050565b6000612ff6612ff1612fec84612211565b612fd1565b612211565b9050919050565b6000819050919050565b61301083612fdb565b61302461301c82612ffd565b848454612f7f565b825550505050565b600090565b61303961302c565b613044818484613007565b505050565b5b818110156130685761305d600082613031565b60018101905061304a565b5050565b601f8211156130ad5761307e81612f4d565b61308784612f62565b81016020851015613096578190505b6130aa6130a285612f62565b830182613049565b50505b505050565b600082821c905092915050565b60006130d0600019846008026130b2565b1980831691505092915050565b60006130e983836130bf565b9150826002028217905092915050565b61310282612283565b67ffffffffffffffff81111561311b5761311a6125e6565b5b6131258254612c55565b61313082828561306c565b600060209050601f8311600181146131635760008415613151578287015190505b61315b85826130dd565b8655506131c3565b601f19841661317186612f4d565b60005b8281101561319957848901518255600182019150602085019450602081019050613174565b868310156131b657848901516131b2601f8916826130bf565b8355505b6001600288020188555050505b505050505050565b600060608201905081810360008301526131e581866122da565b90506131f46020830185612274565b6132016040830184612274565b949350505050565b6000606082019050818103600083015261322381866122da565b9050818103602083015261323781856122da565b90506132466040830184612274565b949350505050565b7f4f6e6c79204576656e7448616e646c6572000000000000000000000000000000600082015250565b600061328460118361228e565b915061328f8261324e565b602082019050919050565b600060208201905081810360008301526132b381613277565b9050919050565b7f496e76616c696420757365720000000000000000000000000000000000000000600082015250565b60006132f0600c8361228e565b91506132fb826132ba565b602082019050919050565b6000602082019050818103600083015261331f816132e3565b9050919050565b7f52756c65206e6f74206163746976650000000000000000000000000000000000600082015250565b600061335c600f8361228e565b915061336782613326565b602082019050919050565b6000602082019050818103600083015261338b8161334f565b9050919050565b60006060820190506133a76000830186612274565b81810360208301526133b981856122da565b90506133c86040830184612274565b949350505050565b60006060820190506133e560008301866123bc565b81810360208301526133f781856122da565b9050818103604083015261340b81846122da565b9050949350505050565b6000815190506134248161221b565b92915050565b6000602082840312156134405761343f612207565b5b600061344e84828501613415565b91505092915050565b600060408201905061346c60008301856123bc565b6134796020830184612274565b9392505050565b6000819050919050565b61349381613480565b82525050565b60006060820190506134ae6000830186612274565b6134bb602083018561348a565b6134c86040830184612274565b94935050505056fea2646970667358221220c78f14ee721951d78c89fa2ced6591ea1a3b132b4dd58fd4f204dbf7c4c413e964736f6c63430008140033",
  "linkReferences": {},
  "deployedLinkReferences": {}
}