{
  "_format": "hh-sol-artifact-1",
  "contractName": "EventHandler",
  "sourceName": "contracts/EventHandler.sol",
  "abi": [
    {
      "inputs": [
        {
          "internalType": "address",
          "name": "_rewardEngine",
          "type": "address"
        }
      ],
      "stateMutability": "nonpayable",
      "type": "constructor"
    },
    {
      "anonymous": false,
      "inputs": [
        {
          "indexed": true,
          "internalType": "address",
          "name": "user",
          "type": "address"
        },
        {
          "indexed": false,
          "internalType": "string",
          "name": "eventName",
          "type": "string"
        },
        {
          "indexed": false,
          "internalType": "uint256",
          "name": "actionType",
          "type": "uint256"
        },
        {
          "indexed": false,
          "internalType": "uint256",
          "name": "timestamp",
          "type": "uint256"
        }
      ],
      "name": "ReactionProcessed",
      "type": "event"
    },
    {
      "anonymous": false,
      "inputs": [
        {
          "indexed": true,
          "internalType": "uint256",
          "name": "ruleId",
          "type": "uint256"
        },
        {
          "indexed": true,
          "internalType": "address",
          "name": "user",
          "type": "address"
        },
        {
          "indexed": false,
          "internalType": "string",
          "name": "eventName",
          "type": "string"
        },
        {
          "indexed": false,
          "internalType": "uint256",
          "name": "timestamp",
          "type": "uint256"
        }
      ],
      "name": "RuleExecuted",
      "type": "event"
    },
    {
      "anonymous": false,
      "inputs": [
        {
          "indexed": true,
          "internalType": "uint256",
          "name": "subscriptionId",
          "type": "uint256"
        },
        {
          "indexed": true,
          "internalType": "uint256",
          "name": "ruleId",
          "type": "uint256"
        },
        {
          "indexed": false,
          "internalType": "string",
          "name": "eventName",
          "type": "string"
        }
      ],
      "name": "SubscriptionCreated",
      "type": "event"
    },
    {
      "inputs": [],
      "name": "admin",
      "outputs": [
        {
          "internalType": "address",
          "name": "",
          "type": "address"
        }
      ],
      "stateMutability": "view",
      "type": "function"
    },
    {
      "inputs": [
        {
          "internalType": "uint256",
          "name": "_subscriptionId",
          "type": "uint256"
        }
      ],
      "name": "getSubscription",
      "outputs": [
        {
          "components": [
            {
              "internalType": "uint256",
              "name": "subscriptionId",
              "type": "uint256"
            },
            {
              "internalType": "uint256",
              "name": "ruleId",
              "type": "uint256"
            },
            {
              "internalType": "string",
              "name": "eventName",
              "type": "string"
            },
            {
              "internalType": "bool",
              "name": "active",
              "type": "bool"
            }
          ],
          "internalType": "struct EventHandler.RuleSubscription",
          "name": "",
          "type": "tuple"
        }
      ],
      "stateMutability": "view",
      "type": "function"
    },
    {
      "inputs": [
        {
          "internalType": "uint256",
          "name": "_subscriptionId",
          "type": "uint256"
        },
        {
          "internalType": "address",
          "name": "_user",
          "type": "address"
        },
        {
          "internalType": "string",
          "name": "_eventName",
          "type": "string"
        }
      ],
      "name": "handleEventReaction",
      "outputs": [],
      "stateMutability": "nonpayable",
      "type": "function"
    },
    {
      "inputs": [
        {
          "internalType": "uint256",
          "name": "_eventId",
          "type": "uint256"
        }
      ],
      "name": "processEvent",
      "outputs": [],
      "stateMutability": "nonpayable",
      "type": "function"
    },
    {
      "inputs": [],
      "name": "rewardEngine",
      "outputs": [
        {
          "internalType": "contract ReactiveRewardEngine",
          "name": "",
          "type": "address"
        }
      ],
      "stateMutability": "view",
      "type": "function"
    },
    {
      "inputs": [
        {
          "internalType": "uint256",
          "name": "_ruleId",
          "type": "uint256"
        },
        {
          "internalType": "string",
          "name": "_eventName",
          "type": "string"
        }
      ],
      "name": "subscribeToRule",
      "outputs": [
        {
          "internalType": "uint256",
          "name": "",
          "type": "uint256"
        }
      ],
      "stateMutability": "nonpayable",
      "type": "function"
    },
    {
      "inputs": [],
      "name": "subscriptionCounter",
      "outputs": [
        {
          "internalType": "uint256",
          "name": "",
          "type": "uint256"
        }
      ],
      "stateMutability": "view",
      "type": "function"
    },
    {
      "inputs": [
        {
          "internalType": "uint256",
          "name": "",
          "type": "uint256"
        }
      ],
      "name": "subscriptions",
      "outputs": [
        {
          "internalType": "uint256",
          "name": "subscriptionId",
          "type": "uint256"
        },
        {
          "internalType": "uint256",
          "name": "ruleId",
          "type": "uint256"
        },
        {
          "internalType": "string",
          "name": "eventName",
          "type": "string"
        },
        {
          "internalType": "bool",
          "name": "active",
          "type": "bool"
        }
      ],
      "stateMutability": "view",
      "type": "function"
    },
    {
      "inputs": [
        {
          "internalType": "uint256",
          "name": "_subscriptionId",
          "type": "uint256"
        }
      ],
      "name": "toggleSubscription",
      "outputs": [],
      "stateMutability": "nonpayable",
      "type": "function"
    }
  ],
  "bytecode": "0x608060405234801561001057600080fd5b50604051611ca1380380611ca183398181016040528101906100329190610193565b600073ffffffffffffffffffffffffffffffffffffffff168173ffffffffffffffffffffffffffffffffffffffff16036100a1576040517f08c379a00000000000000000000000000000000000000000000000000000000081526004016100989061021d565b60405180910390fd5b806000806101000a81548173ffffffffffffffffffffffffffffffffffffffff021916908373ffffffffffffffffffffffffffffffffffffffff16021790555033600160006101000a81548173ffffffffffffffffffffffffffffffffffffffff021916908373ffffffffffffffffffffffffffffffffffffffff16021790555060006003819055505061023d565b600080fd5b600073ffffffffffffffffffffffffffffffffffffffff82169050919050565b600061016082610135565b9050919050565b61017081610155565b811461017b57600080fd5b50565b60008151905061018d81610167565b92915050565b6000602082840312156101a9576101a8610130565b5b60006101b78482850161017e565b91505092915050565b600082825260208201905092915050565b7f496e76616c696420656e67696e65000000000000000000000000000000000000600082015250565b6000610207600e836101c0565b9150610212826101d1565b602082019050919050565b60006020820190508181036000830152610236816101fa565b9050919050565b611a558061024c6000396000f3fe608060405234801561001057600080fd5b50600436106100935760003560e01c8063903a829811610066578063903a829814610133578063ab5829d714610151578063dc311dd31461016f578063e6fc487a1461019f578063f851a440146101bb57610093565b80632a8c0fdf146100985780632d5bbf60146100c8578063460f801c146100fb5780638118665114610117575b600080fd5b6100b260048036038101906100ad9190610e40565b6101d9565b6040516100bf9190610eab565b60405180910390f35b6100e260048036038101906100dd9190610ec6565b61038e565b6040516100f29493929190610f8d565b60405180910390f35b61011560048036038101906101109190611037565b610453565b005b610131600480360381019061012c9190610ec6565b61076a565b005b61013b610a63565b6040516101489190610eab565b60405180910390f35b610159610a69565b6040516101669190611105565b60405180910390f35b61018960048036038101906101849190610ec6565b610a8d565b60405161019691906111eb565b60405180910390f35b6101b960048036038101906101b49190610ec6565b610b7b565b005b6101c3610c60565b6040516101d0919061121c565b60405180910390f35b60008060009054906101000a900473ffffffffffffffffffffffffffffffffffffffff1673ffffffffffffffffffffffffffffffffffffffff1663ad3519516040518163ffffffff1660e01b8152600401602060405180830381865afa158015610247573d6000803e3d6000fd5b505050506040513d601f19601f8201168201806040525081019061026b919061124c565b83106102ac576040517f08c379a00000000000000000000000000000000000000000000000000000000081526004016102a3906112c5565b60405180910390fd5b6000600360008154809291906102c190611314565b9190505590506040518060800160405280828152602001858152602001848152602001600115158152506002600083815260200190815260200160002060008201518160000155602082015181600101556040820151816002019081610327919061155e565b5060608201518160030160006101000a81548160ff02191690831515021790555090505083817f7fa8707c529b5de45c2031b023a8db794e81420caf9f04f900196ed01a0197758560405161037c9190611630565b60405180910390a38091505092915050565b60026020528060005260406000206000915090508060000154908060010154908060020180546103bd9061138b565b80601f01602080910402602001604051908101604052809291908181526020018280546103e99061138b565b80156104365780601f1061040b57610100808354040283529160200191610436565b820191906000526020600020905b81548152906001019060200180831161041957829003601f168201915b5050505050908060030160009054906101000a900460ff16905084565b6002600084815260200190815260200160002060030160009054906101000a900460ff166104b6576040517f08c379a00000000000000000000000000000000000000000000000000000000081526004016104ad9061169e565b60405180910390fd5b60006002600085815260200190815260200160002060405180608001604052908160008201548152602001600182015481526020016002820180546104fa9061138b565b80601f01602080910402602001604051908101604052809291908181526020018280546105269061138b565b80156105735780601f1061054857610100808354040283529160200191610573565b820191906000526020600020905b81548152906001019060200180831161055657829003601f168201915b505050505081526020016003820160009054906101000a900460ff1615151515815250509050816040516020016105aa91906116fa565b6040516020818303038152906040528051906020012081604001516040516020016105d591906116fa565b604051602081830303815290604052805190602001201461062b576040517f08c379a00000000000000000000000000000000000000000000000000000000081526004016106229061175d565b60405180910390fd5b60008054906101000a900473ffffffffffffffffffffffffffffffffffffffff1673ffffffffffffffffffffffffffffffffffffffff1663c3fda7a38483602001516040518363ffffffff1660e01b815260040161068a92919061177d565b600060405180830381600087803b1580156106a457600080fd5b505af11580156106b8573d6000803e3d6000fd5b505050508273ffffffffffffffffffffffffffffffffffffffff1681602001517f2778c0552791a69ba2fb08c51f87f40121bd21a79990c4367dd3ed565d3179d984426040516107099291906117a6565b60405180910390a38273ffffffffffffffffffffffffffffffffffffffff167f0db31bd40d1818c59f6176ddfbcc8878bae88ba7a22b36cc1e3be5e4792c76e68360004260405161075c93929190611811565b60405180910390a250505050565b60008060008054906101000a900473ffffffffffffffffffffffffffffffffffffffff1673ffffffffffffffffffffffffffffffffffffffff16637744a7b5846040518263ffffffff1660e01b81526004016107c69190610eab565b600060405180830381865afa1580156107e3573d6000803e3d6000fd5b505050506040513d6000823e3d601f19601f8201168201806040525081019061080c9190611900565b5050509150915060005b600354811015610a5d5760006002600083815260200190815260200160002060405180608001604052908160008201548152602001600182015481526020016002820180546108649061138b565b80601f01602080910402602001604051908101604052809291908181526020018280546108909061138b565b80156108dd5780601f106108b2576101008083540402835291602001916108dd565b820191906000526020600020905b8154815290600101906020018083116108c057829003601f168201915b505050505081526020016003820160009054906101000a900460ff16151515158152505090508060600151801561096357508260405160200161092091906116fa565b60405160208183030381529060405280519060200120816040015160405160200161094b91906116fa565b60405160208183030381529060405280519060200120145b15610a4f5760008054906101000a900473ffffffffffffffffffffffffffffffffffffffff1673ffffffffffffffffffffffffffffffffffffffff1663c3fda7a38583602001516040518363ffffffff1660e01b81526004016109c792919061177d565b600060405180830381600087803b1580156109e157600080fd5b505af11580156109f5573d6000803e3d6000fd5b505050508373ffffffffffffffffffffffffffffffffffffffff1681602001517f2778c0552791a69ba2fb08c51f87f40121bd21a79990c4367dd3ed565d3179d98542604051610a469291906117a6565b60405180910390a35b508080600101915050610816565b50505050565b60035481565b60008054906101000a900473ffffffffffffffffffffffffffffffffffffffff1681565b610a95610c86565b600260008381526020019081526020016000206040518060800160405290816000820154815260200160018201548152602001600282018054610ad79061138b565b80601f0160208091040260200160405190810160405280929190818152602001828054610b039061138b565b8015610b505780601f10610b2557610100808354040283529160200191610b50565b820191906000526020600020905b815481529060010190602001808311610b3357829003601f168201915b505050505081526020016003820160009054906101000a900460ff1615151515815250509050919050565b600160009054906101000a900473ffffffffffffffffffffffffffffffffffffffff1673ffffffffffffffffffffffffffffffffffffffff163373ffffffffffffffffffffffffffffffffffffffff1614610c0b576040517f08c379a0000000000000000000000000000000000000000000000000000000008152600401610c02906119ff565b60405180910390fd5b6002600082815260200190815260200160002060030160009054906101000a900460ff16156002600083815260200190815260200160002060030160006101000a81548160ff02191690831515021790555050565b600160009054906101000a900473ffffffffffffffffffffffffffffffffffffffff1681565b60405180608001604052806000815260200160008152602001606081526020016000151581525090565b6000604051905090565b600080fd5b600080fd5b6000819050919050565b610cd781610cc4565b8114610ce257600080fd5b50565b600081359050610cf481610cce565b92915050565b600080fd5b600080fd5b6000601f19601f8301169050919050565b7f4e487b7100000000000000000000000000000000000000000000000000000000600052604160045260246000fd5b610d4d82610d04565b810181811067ffffffffffffffff82111715610d6c57610d6b610d15565b5b80604052505050565b6000610d7f610cb0565b9050610d8b8282610d44565b919050565b600067ffffffffffffffff821115610dab57610daa610d15565b5b610db482610d04565b9050602081019050919050565b82818337600083830152505050565b6000610de3610dde84610d90565b610d75565b905082815260208101848484011115610dff57610dfe610cff565b5b610e0a848285610dc1565b509392505050565b600082601f830112610e2757610e26610cfa565b5b8135610e37848260208601610dd0565b91505092915050565b60008060408385031215610e5757610e56610cba565b5b6000610e6585828601610ce5565b925050602083013567ffffffffffffffff811115610e8657610e85610cbf565b5b610e9285828601610e12565b9150509250929050565b610ea581610cc4565b82525050565b6000602082019050610ec06000830184610e9c565b92915050565b600060208284031215610edc57610edb610cba565b5b6000610eea84828501610ce5565b91505092915050565b600081519050919050565b600082825260208201905092915050565b60005b83811015610f2d578082015181840152602081019050610f12565b60008484015250505050565b6000610f4482610ef3565b610f4e8185610efe565b9350610f5e818560208601610f0f565b610f6781610d04565b840191505092915050565b60008115159050919050565b610f8781610f72565b82525050565b6000608082019050610fa26000830187610e9c565b610faf6020830186610e9c565b8181036040830152610fc18185610f39565b9050610fd06060830184610f7e565b95945050505050565b600073ffffffffffffffffffffffffffffffffffffffff82169050919050565b600061100482610fd9565b9050919050565b61101481610ff9565b811461101f57600080fd5b50565b6000813590506110318161100b565b92915050565b6000806000606084860312156110505761104f610cba565b5b600061105e86828701610ce5565b935050602061106f86828701611022565b925050604084013567ffffffffffffffff8111156110905761108f610cbf565b5b61109c86828701610e12565b9150509250925092565b6000819050919050565b60006110cb6110c66110c184610fd9565b6110a6565b610fd9565b9050919050565b60006110dd826110b0565b9050919050565b60006110ef826110d2565b9050919050565b6110ff816110e4565b82525050565b600060208201905061111a60008301846110f6565b92915050565b61112981610cc4565b82525050565b600082825260208201905092915050565b600061114b82610ef3565b611155818561112f565b9350611165818560208601610f0f565b61116e81610d04565b840191505092915050565b61118281610f72565b82525050565b60006080830160008301516111a06000860182611120565b5060208301516111b36020860182611120565b50604083015184820360408601526111cb8282611140565b91505060608301516111e06060860182611179565b508091505092915050565b600060208201905081810360008301526112058184611188565b905092915050565b61121681610ff9565b82525050565b6000602082019050611231600083018461120d565b92915050565b60008151905061124681610cce565b92915050565b60006020828403121561126257611261610cba565b5b600061127084828501611237565b91505092915050565b7f52756c65206e6f7420666f756e64000000000000000000000000000000000000600082015250565b60006112af600e83610efe565b91506112ba82611279565b602082019050919050565b600060208201905081810360008301526112de816112a2565b9050919050565b7f4e487b7100000000000000000000000000000000000000000000000000000000600052601160045260246000fd5b600061131f82610cc4565b91507fffffffffffffffffffffffffffffffffffffffffffffffffffffffffffffffff8203611351576113506112e5565b5b600182019050919050565b7f4e487b7100000000000000000000000000000000000000000000000000000000600052602260045260246000fd5b600060028204905060018216806113a357607f821691505b6020821081036113b6576113b561135c565b5b50919050565b60008190508160005260206000209050919050565b60006020601f8301049050919050565b600082821b905092915050565b60006008830261141e7fffffffffffffffffffffffffffffffffffffffffffffffffffffffffffffffff826113e1565b61142886836113e1565b95508019841693508086168417925050509392505050565b600061145b61145661145184610cc4565b6110a6565b610cc4565b9050919050565b6000819050919050565b61147583611440565b61148961148182611462565b8484546113ee565b825550505050565b600090565b61149e611491565b6114a981848461146c565b505050565b5b818110156114cd576114c2600082611496565b6001810190506114af565b5050565b601f821115611512576114e3816113bc565b6114ec846113d1565b810160208510156114fb578190505b61150f611507856113d1565b8301826114ae565b50505b505050565b600082821c905092915050565b600061153560001984600802611517565b1980831691505092915050565b600061154e8383611524565b9150826002028217905092915050565b61156782610ef3565b67ffffffffffffffff8111156115805761157f610d15565b5b61158a825461138b565b6115958282856114d1565b600060209050601f8311600181146115c857600084156115b6578287015190505b6115c08582611542565b865550611628565b601f1984166115d6866113bc565b60005b828110156115fe578489015182556001820191506020850194506020810190506115d9565b8683101561161b5784890151611617601f891682611524565b8355505b6001600288020188555050505b505050505050565b6000602082019050818103600083015261164a8184610f39565b905092915050565b7f537562736372697074696f6e206e6f7420616374697665000000000000000000600082015250565b6000611688601783610efe565b915061169382611652565b602082019050919050565b600060208201905081810360008301526116b78161167b565b9050919050565b600081905092915050565b60006116d482610ef3565b6116de81856116be565b93506116ee818560208601610f0f565b80840191505092915050565b600061170682846116c9565b915081905092915050565b7f4576656e74206d69736d61746368000000000000000000000000000000000000600082015250565b6000611747600e83610efe565b915061175282611711565b602082019050919050565b600060208201905081810360008301526117768161173a565b9050919050565b6000604082019050611792600083018561120d565b61179f6020830184610e9c565b9392505050565b600060408201905081810360008301526117c08185610f39565b90506117cf6020830184610e9c565b9392505050565b6000819050919050565b60006117fb6117f66117f1846117d6565b6110a6565b610cc4565b9050919050565b61180b816117e0565b82525050565b6000606082019050818103600083015261182b8186610f39565b905061183a6020830185611802565b6118476040830184610e9c565b949350505050565b60008151905061185e8161100b565b92915050565b600061187761187284610d90565b610d75565b90508281526020810184848401111561189357611892610cff565b5b61189e848285610f0f565b509392505050565b600082601f8301126118bb576118ba610cfa565b5b81516118cb848260208601611864565b91505092915050565b6118dd81610f72565b81146118e857600080fd5b50565b6000815190506118fa816118d4565b92915050565b600080600080600060a0868803121561191c5761191b610cba565b5b600061192a8882890161184f565b955050602086015167ffffffffffffffff81111561194b5761194a610cbf565b5b611957888289016118a6565b945050604086015167ffffffffffffffff81111561197857611977610cbf565b5b611984888289016118a6565b935050606061199588828901611237565b92505060806119a6888289016118eb565b9150509295509295909350565b7f4f6e6c792061646d696e00000000000000000000000000000000000000000000600082015250565b60006119e9600a83610efe565b91506119f4826119b3565b602082019050919050565b60006020820190508181036000830152611a18816119dc565b905091905056fea26469706673582212209899113284a78667a5f7eba6fb725d149de501e6a98be6b1f5198b9fac2c7b3464736f6c634300081c0033",
  "linkReferences": {},
  "deployedLinkReferences": {}
}